{
  "_format": "hh-sol-artifact-1",
  "contractName": "CrowdFunding",
  "sourceName": "contracts/CrowdFunding.sol",
  "abi": [
    {
      "anonymous": false,
      "inputs": [
        {
          "indexed": false,
          "internalType": "address",
          "name": "donators",
          "type": "address"
        },
        {
          "indexed": false,
          "internalType": "uint256",
          "name": "value",
          "type": "uint256"
        },
        {
          "indexed": false,
          "internalType": "string",
          "name": "action",
          "type": "string"
        }
      ],
      "name": "UserInteraction",
      "type": "event"
    },
    {
      "inputs": [
        {
          "internalType": "uint256",
          "name": "",
          "type": "uint256"
        }
      ],
      "name": "campaigns",
      "outputs": [
        {
          "internalType": "address",
          "name": "owner",
          "type": "address"
        },
        {
          "internalType": "string",
          "name": "title",
          "type": "string"
        },
        {
          "internalType": "string",
          "name": "description",
          "type": "string"
        },
        {
          "internalType": "uint256",
          "name": "target",
          "type": "uint256"
        },
        {
          "internalType": "uint256",
          "name": "deadline",
          "type": "uint256"
        },
        {
          "internalType": "uint256",
          "name": "amountCollected",
          "type": "uint256"
        }
      ],
      "stateMutability": "view",
      "type": "function"
    },
    {
      "inputs": [
        {
          "internalType": "address",
          "name": "_owner",
          "type": "address"
        },
        {
          "internalType": "string",
          "name": "_title",
          "type": "string"
        },
        {
          "internalType": "string",
          "name": "_description",
          "type": "string"
        },
        {
          "internalType": "uint256",
          "name": "_target",
          "type": "uint256"
        },
        {
          "internalType": "uint256",
          "name": "_deadline",
          "type": "uint256"
        }
      ],
      "name": "createCampaign",
      "outputs": [
        {
          "internalType": "uint256",
          "name": "",
          "type": "uint256"
        }
      ],
      "stateMutability": "nonpayable",
      "type": "function"
    },
    {
      "inputs": [
        {
          "internalType": "uint256",
          "name": "_id",
          "type": "uint256"
        }
      ],
      "name": "donateToCampaign",
      "outputs": [],
      "stateMutability": "payable",
      "type": "function"
    },
    {
      "inputs": [],
      "name": "getCampaigns",
      "outputs": [
        {
          "components": [
            {
              "internalType": "address",
              "name": "owner",
              "type": "address"
            },
            {
              "internalType": "string",
              "name": "title",
              "type": "string"
            },
            {
              "internalType": "string",
              "name": "description",
              "type": "string"
            },
            {
              "internalType": "uint256",
              "name": "target",
              "type": "uint256"
            },
            {
              "internalType": "uint256",
              "name": "deadline",
              "type": "uint256"
            },
            {
              "internalType": "uint256",
              "name": "amountCollected",
              "type": "uint256"
            },
            {
              "internalType": "address[]",
              "name": "donators",
              "type": "address[]"
            },
            {
              "internalType": "uint256[]",
              "name": "donations",
              "type": "uint256[]"
            }
          ],
          "internalType": "struct CrowdFunding.Campaign[]",
          "name": "",
          "type": "tuple[]"
        }
      ],
      "stateMutability": "view",
      "type": "function"
    },
    {
      "inputs": [
        {
          "internalType": "uint256",
          "name": "_id",
          "type": "uint256"
        }
      ],
      "name": "getDonators",
      "outputs": [
        {
          "internalType": "address[]",
          "name": "",
          "type": "address[]"
        },
        {
          "internalType": "uint256[]",
          "name": "",
          "type": "uint256[]"
        }
      ],
      "stateMutability": "view",
      "type": "function"
    },
    {
      "inputs": [
        {
          "internalType": "uint256",
          "name": "value",
          "type": "uint256"
        },
        {
          "internalType": "string",
          "name": "action",
          "type": "string"
        }
      ],
      "name": "interact",
      "outputs": [],
      "stateMutability": "nonpayable",
      "type": "function"
    },
    {
      "inputs": [],
      "name": "numberOfCampaigns",
      "outputs": [
        {
          "internalType": "uint256",
          "name": "",
          "type": "uint256"
        }
      ],
      "stateMutability": "view",
      "type": "function"
    }
  ],
  "bytecode": "0x60806040526000600155348015601457600080fd5b506118a8806100246000396000f3fe6080604052600436106100705760003560e01c8063141961bc1161004e578063141961bc1461011b5780633dfa38541461015d57806342a4fda814610186578063a6b03633146101a257610070565b8063075843c31461007557806307ca140d146100b25780630fa91fa9146100dd575b600080fd5b34801561008157600080fd5b5061009c60048036038101906100979190610c89565b6101cd565b6040516100a99190610d4b565b60405180910390f35b3480156100be57600080fd5b506100c76102e1565b6040516100d49190610d4b565b60405180910390f35b3480156100e957600080fd5b5061010460048036038101906100ff9190610d66565b6102e7565b604051610112929190610f0f565b60405180910390f35b34801561012757600080fd5b50610142600480360381019061013d9190610d66565b6103f7565b60405161015496959493929190610fd4565b60405180910390f35b34801561016957600080fd5b50610184600480360381019061017f9190611043565b610563565b005b6101a0600480360381019061019b9190610d66565b6105a2565b005b3480156101ae57600080fd5b506101b7610702565b6040516101c4919061134e565b60405180910390f35b600080600080600154815260200190815260200160002090504281600401541061022c576040517f08c379a0000000000000000000000000000000000000000000000000000000008152600401610223906113e2565b60405180910390fd5b868160000160006101000a81548173ffffffffffffffffffffffffffffffffffffffff021916908373ffffffffffffffffffffffffffffffffffffffff16021790555085816001019081610280919061160e565b5084816002019081610292919061160e565b5083816003018190555082816004018190555060008160050181905550600160008154809291906102c29061170f565b9190505550600180546102d59190611757565b91505095945050505050565b60015481565b6060806000808481526020019081526020016000206006016000808581526020019081526020016000206007018180548060200260200160405190810160405280929190818152602001828054801561039557602002820191906000526020600020905b8160009054906101000a900473ffffffffffffffffffffffffffffffffffffffff1673ffffffffffffffffffffffffffffffffffffffff168152602001906001019080831161034b575b50505050509150808054806020026020016040519081016040528092919081815260200182805480156103e757602002820191906000526020600020905b8154815260200190600101908083116103d3575b5050505050905091509150915091565b60006020528060005260406000206000915090508060000160009054906101000a900473ffffffffffffffffffffffffffffffffffffffff169080600101805461044090611431565b80601f016020809104026020016040519081016040528092919081815260200182805461046c90611431565b80156104b95780601f1061048e576101008083540402835291602001916104b9565b820191906000526020600020905b81548152906001019060200180831161049c57829003601f168201915b5050505050908060020180546104ce90611431565b80601f01602080910402602001604051908101604052809291908181526020018280546104fa90611431565b80156105475780601f1061051c57610100808354040283529160200191610547565b820191906000526020600020905b81548152906001019060200180831161052a57829003601f168201915b5050505050908060030154908060040154908060050154905086565b7f55df9df603c28eb6c41829f2aa05d3cdcaa966a7785c39eb23f85e42bada23633383836040516105969392919061178b565b60405180910390a15050565b60003490506000806000848152602001908152602001600020905080600601339080600181540180825580915050600190039060005260206000200160009091909190916101000a81548173ffffffffffffffffffffffffffffffffffffffff021916908373ffffffffffffffffffffffffffffffffffffffff1602179055508060070182908060018154018082558091505060019003906000526020600020016000909190919091505560008160000160009054906101000a900473ffffffffffffffffffffffffffffffffffffffff1673ffffffffffffffffffffffffffffffffffffffff1683604051610697906117fa565b60006040518083038185875af1925050503d80600081146106d4576040519150601f19603f3d011682016040523d82523d6000602084013e6106d9565b606091505b5050905080156106fc578282600501546106f3919061180f565b82600501819055505b50505050565b6060600060015467ffffffffffffffff81111561072257610721610b28565b5b60405190808252806020026020018201604052801561075b57816020015b610748610a40565b8152602001906001900390816107405790505b50905060005b600154811015610a38576000806000838152602001908152602001600020905080604051806101000160405290816000820160009054906101000a900473ffffffffffffffffffffffffffffffffffffffff1673ffffffffffffffffffffffffffffffffffffffff1673ffffffffffffffffffffffffffffffffffffffff1681526020016001820180546107f490611431565b80601f016020809104026020016040519081016040528092919081815260200182805461082090611431565b801561086d5780601f106108425761010080835404028352916020019161086d565b820191906000526020600020905b81548152906001019060200180831161085057829003601f168201915b5050505050815260200160028201805461088690611431565b80601f01602080910402602001604051908101604052809291908181526020018280546108b290611431565b80156108ff5780601f106108d4576101008083540402835291602001916108ff565b820191906000526020600020905b8154815290600101906020018083116108e257829003601f168201915b50505050508152602001600382015481526020016004820154815260200160058201548152602001600682018054806020026020016040519081016040528092919081815260200182805480156109ab57602002820191906000526020600020905b8160009054906101000a900473ffffffffffffffffffffffffffffffffffffffff1673ffffffffffffffffffffffffffffffffffffffff1681526020019060010190808311610961575b5050505050815260200160078201805480602002602001604051908101604052809291908181526020018280548015610a0357602002820191906000526020600020905b8154815260200190600101908083116109ef575b505050505081525050838381518110610a1f57610a1e611843565b5b6020026020010181905250508080600101915050610761565b508091505090565b604051806101000160405280600073ffffffffffffffffffffffffffffffffffffffff168152602001606081526020016060815260200160008152602001600081526020016000815260200160608152602001606081525090565b6000604051905090565b600080fd5b600080fd5b600073ffffffffffffffffffffffffffffffffffffffff82169050919050565b6000610ada82610aaf565b9050919050565b610aea81610acf565b8114610af557600080fd5b50565b600081359050610b0781610ae1565b92915050565b600080fd5b600080fd5b6000601f19601f8301169050919050565b7f4e487b7100000000000000000000000000000000000000000000000000000000600052604160045260246000fd5b610b6082610b17565b810181811067ffffffffffffffff82111715610b7f57610b7e610b28565b5b80604052505050565b6000610b92610a9b565b9050610b9e8282610b57565b919050565b600067ffffffffffffffff821115610bbe57610bbd610b28565b5b610bc782610b17565b9050602081019050919050565b82818337600083830152505050565b6000610bf6610bf184610ba3565b610b88565b905082815260208101848484011115610c1257610c11610b12565b5b610c1d848285610bd4565b509392505050565b600082601f830112610c3a57610c39610b0d565b5b8135610c4a848260208601610be3565b91505092915050565b6000819050919050565b610c6681610c53565b8114610c7157600080fd5b50565b600081359050610c8381610c5d565b92915050565b600080600080600060a08688031215610ca557610ca4610aa5565b5b6000610cb388828901610af8565b955050602086013567ffffffffffffffff811115610cd457610cd3610aaa565b5b610ce088828901610c25565b945050604086013567ffffffffffffffff811115610d0157610d00610aaa565b5b610d0d88828901610c25565b9350506060610d1e88828901610c74565b9250506080610d2f88828901610c74565b9150509295509295909350565b610d4581610c53565b82525050565b6000602082019050610d606000830184610d3c565b92915050565b600060208284031215610d7c57610d7b610aa5565b5b6000610d8a84828501610c74565b91505092915050565b600081519050919050565b600082825260208201905092915050565b6000819050602082019050919050565b610dc881610acf565b82525050565b6000610dda8383610dbf565b60208301905092915050565b6000602082019050919050565b6000610dfe82610d93565b610e088185610d9e565b9350610e1383610daf565b8060005b83811015610e44578151610e2b8882610dce565b9750610e3683610de6565b925050600181019050610e17565b5085935050505092915050565b600081519050919050565b600082825260208201905092915050565b6000819050602082019050919050565b610e8681610c53565b82525050565b6000610e988383610e7d565b60208301905092915050565b6000602082019050919050565b6000610ebc82610e51565b610ec68185610e5c565b9350610ed183610e6d565b8060005b83811015610f02578151610ee98882610e8c565b9750610ef483610ea4565b925050600181019050610ed5565b5085935050505092915050565b60006040820190508181036000830152610f298185610df3565b90508181036020830152610f3d8184610eb1565b90509392505050565b610f4f81610acf565b82525050565b600081519050919050565b600082825260208201905092915050565b60005b83811015610f8f578082015181840152602081019050610f74565b60008484015250505050565b6000610fa682610f55565b610fb08185610f60565b9350610fc0818560208601610f71565b610fc981610b17565b840191505092915050565b600060c082019050610fe96000830189610f46565b8181036020830152610ffb8188610f9b565b9050818103604083015261100f8187610f9b565b905061101e6060830186610d3c565b61102b6080830185610d3c565b61103860a0830184610d3c565b979650505050505050565b6000806040838503121561105a57611059610aa5565b5b600061106885828601610c74565b925050602083013567ffffffffffffffff81111561108957611088610aaa565b5b61109585828601610c25565b9150509250929050565b600081519050919050565b600082825260208201905092915050565b6000819050602082019050919050565b600082825260208201905092915050565b60006110e782610f55565b6110f181856110cb565b9350611101818560208601610f71565b61110a81610b17565b840191505092915050565b600082825260208201905092915050565b600061113182610d93565b61113b8185611115565b935061114683610daf565b8060005b8381101561117757815161115e8882610dce565b975061116983610de6565b92505060018101905061114a565b5085935050505092915050565b600082825260208201905092915050565b60006111a082610e51565b6111aa8185611184565b93506111b583610e6d565b8060005b838110156111e65781516111cd8882610e8c565b97506111d883610ea4565b9250506001810190506111b9565b5085935050505092915050565b60006101008301600083015161120c6000860182610dbf565b506020830151848203602086015261122482826110dc565b9150506040830151848203604086015261123e82826110dc565b91505060608301516112536060860182610e7d565b5060808301516112666080860182610e7d565b5060a083015161127960a0860182610e7d565b5060c083015184820360c08601526112918282611126565b91505060e083015184820360e08601526112ab8282611195565b9150508091505092915050565b60006112c483836111f3565b905092915050565b6000602082019050919050565b60006112e48261109f565b6112ee81856110aa565b935083602082028501611300856110bb565b8060005b8581101561133c578484038952815161131d85826112b8565b9450611328836112cc565b925060208a01995050600181019050611304565b50829750879550505050505092915050565b6000602082019050818103600083015261136881846112d9565b905092915050565b7f54686520646561646c696e652073686f756c642062652061206461746520696e60008201527f2074686520667574757265000000000000000000000000000000000000000000602082015250565b60006113cc602b83610f60565b91506113d782611370565b604082019050919050565b600060208201905081810360008301526113fb816113bf565b9050919050565b7f4e487b7100000000000000000000000000000000000000000000000000000000600052602260045260246000fd5b6000600282049050600182168061144957607f821691505b60208210810361145c5761145b611402565b5b50919050565b60008190508160005260206000209050919050565b60006020601f8301049050919050565b600082821b905092915050565b6000600883026114c47fffffffffffffffffffffffffffffffffffffffffffffffffffffffffffffffff82611487565b6114ce8683611487565b95508019841693508086168417925050509392505050565b6000819050919050565b600061150b61150661150184610c53565b6114e6565b610c53565b9050919050565b6000819050919050565b611525836114f0565b61153961153182611512565b848454611494565b825550505050565b600090565b61154e611541565b61155981848461151c565b505050565b5b8181101561157d57611572600082611546565b60018101905061155f565b5050565b601f8211156115c25761159381611462565b61159c84611477565b810160208510156115ab578190505b6115bf6115b785611477565b83018261155e565b50505b505050565b600082821c905092915050565b60006115e5600019846008026115c7565b1980831691505092915050565b60006115fe83836115d4565b9150826002028217905092915050565b61161782610f55565b67ffffffffffffffff8111156116305761162f610b28565b5b61163a8254611431565b611645828285611581565b600060209050601f8311600181146116785760008415611666578287015190505b61167085826115f2565b8655506116d8565b601f19841661168686611462565b60005b828110156116ae57848901518255600182019150602085019450602081019050611689565b868310156116cb57848901516116c7601f8916826115d4565b8355505b6001600288020188555050505b505050505050565b7f4e487b7100000000000000000000000000000000000000000000000000000000600052601160045260246000fd5b600061171a82610c53565b91507fffffffffffffffffffffffffffffffffffffffffffffffffffffffffffffffff820361174c5761174b6116e0565b5b600182019050919050565b600061176282610c53565b915061176d83610c53565b9250828203905081811115611785576117846116e0565b5b92915050565b60006060820190506117a06000830186610f46565b6117ad6020830185610d3c565b81810360408301526117bf8184610f9b565b9050949350505050565b600081905092915050565b50565b60006117e46000836117c9565b91506117ef826117d4565b600082019050919050565b6000611805826117d7565b9150819050919050565b600061181a82610c53565b915061182583610c53565b925082820190508082111561183d5761183c6116e0565b5b92915050565b7f4e487b7100000000000000000000000000000000000000000000000000000000600052603260045260246000fdfea26469706673582212203f42bddd0e332eefc54572acb7814e28248f0c681207aea3c4454d22d0f10de764736f6c634300081c0033",
  "linkReferences": {},
  "deployedLinkReferences": {}
}